:10000000A2C00000BBC00000B9C00000B7C0000023
:10001000B5C00000B3C00000B1C00000AFC0000018
:10002000ADC00000ABC00000A9C0000045C6000084
:10003000A2C60000A3C00000A1C000009FC0000035
:100040009DC000009BC0000099C0000097C0000048
:1000500095C0000093C0000091C000008FC0000058
:100060008DC000008BC0000089C0000087C0000068
:1000700085C0000000010000AB001200020000BDBE
:10008000002200220000DF003F00210000CF000915
:10009000000300001E01040103090422010E0203F3
:1000A0000904320112000001C10600120100020021
:1000B000000020C0167C0400010102000109022298
:1000C00000010100C0320904000001030101000920
:1000D0002111010001223F000705830308000105EB
:1000E000010906A10175019508050719E029E71521
:1000F00000250181029501750881039505750105AB
:10010000081901290591029501750391039506755A
:1001100008150025680507190029688100C0040337
:1001200009040E03690062006E00540065006F0050
:100130000000120343006100740062006F00610060
:1001400072006400000011241FBECFEFD2E0DEBFBA
:10015000CDBF12E0A0E0B1E0EAE6F0E102C0059018
:100160000D92A233B107D9F712E0A2E3B2E001C0C9
:100170001D92A638B107E1F725D575C741CF20916B
:10018000460222702093320280912402909125022F
:100190002223C9F02FE631E08217930759F141E09D
:1001A0008B3A940729F4309335022093340204C02B
:1001B0003093250220932402469A80912E028823B0
:1001C000C9F0599A089520E031E08217930791F021
:1001D00041E08B3A940729F430933502209334029E
:1001E00004C03093250220932402599880912E0256
:1001F00081114698089580912302823091F488E01D
:1002000080933F021092400210D58FEF90E7A2E05A
:1002100081509040A040E1F700C000008CE268E00F
:1002200011C084E080933F0210924002FED48FEF11
:1002300090E7A2E081509040A040E1F700C00000AC
:1002400080E066E02CC58AE484B980E287B984E066
:100250008AB98FEF85B988B98BB9089580E8809302
:10026000610010926100EFDF569A3E9A519A469AC9
:10027000599880912E0281115E98EAE4F2E0119281
:1002800082E0E638F807D9F7B9D4CCD48823E9F36B
:100290005E9A80912E028111469880914602809349
:1002A000320208958C3318F5282F30E0F901E65B0F
:1002B000FD4F9081913041F425553E4FF9018081E9
:1002C0001816B4F080E00895409124025091250260
:1002D000F1E04B3A5F0731F0923021F421593E4F63
:1002E000F90103C0480F511DFA018081089580E093
:1002F00008950F931F93CF93DF93C6E2D2E000E4FB
:1003000012E08991CFDFF80181938F01F2E0CC32C6
:10031000DF07B9F78091330280933F0286D4DF91E3
:10032000CF911F910F9108950F931F93082F282F9E
:1003300030E0F901E65BFD4F1081113021F4F90145
:10034000E555FE4F13C0E0912402F0912502E20F23
:10035000F31F8081163059F44091340250913502D8
:100360004115510521F0420F531FFA018081265B90
:100370003D4FF901108290913602992309F030C166
:100380008D3608F4ACC08D3749F4133009F428C118
:10039000809133028B7F809333020AC08D3609F03F
:1003A00041C090913302153029F49E7F909333021F
:1003B000A0DF16C19D7F909333029BDF80912F02B7
:1003C000801709F088C08091370290913802009719
:1003D00009F481C08233910508F07DC0143009F41E
:1003E0007AC02091240230912502F1E02F363F0798
:1003F00009F471C08FE691E041E02B3A340729F40B
:10040000909335028093340204C090932502809328
:100410002402F1DE469A80912E02882309F45BC003
:10042000599A59C08E36C1F5809133028F7D8093E1
:1004300033025FDF80912F02801709F04CC080915A
:10044000370290913802009709F445C08233910534
:1004500008F041C0143009F43EC0209124023091CC
:10046000250281E020303807B1F180E091E0E1E041
:100470002B3A3E0729F4909335028093340204C04E
:100480009093250280932402B6DE599880912E0223
:10049000882309F146981FC0873709F0A1C08091D1
:1004A00033028D7F8093330224DF80912F028017E7
:1004B00091F48091370290913802009761F0823375
:1004C000910548F4123039F080913302882319F4F1
:1004D0008CE260E0E4D38FEF80932F0271C0853609
:1004E00008F44BC090912302923021F48536F1F04C
:1004F000893611F08C3631F4809133028F778093F6
:10050000330227C0853621F4809133028E7FF7CFE6
:10051000863621F4809133028D7FF1CF873621F426
:10052000809133028B7FEBCF883621F480913302A8
:10053000877FE5CF893621F4809133028F7EDFCF2C
:10054000909133028A3611F49F7D01C09F7B909376
:100550003302CFDE109238021092370210923A0224
:100560001092390210923C0210923B0210923E020D
:1005700010923D0210922F0233C0E6E2F2E080E0DA
:100580009191901759F08F5F8630D1F707C0E82F0F
:10059000F0E0EA5DFD4F918190838F5F8630B8F384
:1005A000A8DE80912F02801759F410923A0210921F
:1005B000390281E090E090933C0280933B020CC0B2
:1005C000109238021092370210923A0210923902B9
:1005D00010923C0210923B0210923E0210923D0299
:1005E0001F910F9108951F93182F70913302972F29
:1005F0009D7D282F30E080917102882321F499237A
:1006000021F082E003C081E001C08FEFF901E65BD9
:10061000FD4F8083813021F4F901E555FE4F06C07E
:10062000E0912402F0912502E10FF11D6081662323
:1006300011F5412F50E0E0912402F0912502E40FE2
:10064000F51F6081992311F082E001C08FEFF9015D
:10065000E65BFD4F8083662371F4809134029091B4
:100660003502009741F0772331F4480F591FDA0122
:100670006C9186E0808380913602882321F06A376E
:1006800009F09BC173C06D3608F412C16D3729F5AE
:10069000F901E65BFD4F8081813019F48BE264E063
:1006A00063C080913302882321F484E08093330275
:1006B00002C083E080838091330280933F028BE20B
:1006C00080934002B2D28FEF90E7A2E08150904039
:1006D000A040E1F700C0000050C16E3759F5265B1D
:1006E0003D4FD9018C91813009F048C1809133028E
:1006F000827209F443C120913402309135022115F0
:10070000310549F0309325022093240210923502DE
:100710001092340233C1809124029091250290936B
:1007200035028093340287EE91E090932502809306
:10073000240224C16C37D1F4265B3D4FF90180813E
:10074000813079F480913302827259F080912302D2
:100750008F5F80932302833008F410C1109223022C
:100760000DC18CE2609133029AD208C16D36A1F4BA
:1007700080913302982F927239F0265B3D4F95E0BD
:10078000D9019C9381601DC08823D1F0265B3D4F29
:1007900094E0F901908314C06E3621F48091330205
:1007A00080620FC06B3741F481E090912D0291116E
:1007B00080E080932D02E2C0673731F480913302EC
:1007C000826080933302D9C06F3609F4D7C06A378C
:1007D000B1F5882359F11092360280912E028823B8
:1007E00009F4CCC08091240290912502F1E08F366B
:1007F0009F0741F0809134029091350221E08F36BD
:10080000920709F4599A8091240290912502A1E05F
:1008100080309A0709F44AC08091340290913502E1
:10082000B1E080309B0709F0A9C040C081E080930F
:1008300036025E9A469A59988FE068E095CF6937FC
:1008400009F09CC080913302827209F497C08091B4
:100850002E02882331F010922E025E9A469A599801
:100860008DC081E080932E02809124029091250218
:10087000E1E08F369E0741F080913402909135027D
:10088000F1E08F369F0709F4599A809124029091E4
:10089000250221E08030920749F080913402909146
:1008A0003502A1E080309A0709F068C0469866C01A
:1008B000653608F441C080912302823021F4653608
:1008C000E1F0693611F06C3621F4809133028068D2
:1008D00025C0653621F48091330281601FC06636E1
:1008E00021F480913302826019C0673621F480912F
:1008F0003302846013C0683621F48091330288602B
:100900000DC0693621F480913302806107C0809167
:1009100033026A3611F4806201C08064809333022E
:10092000E8DC109238021092370210923C021092CA
:100930003B0210922F0222C080912F02811739F4BE
:1009400080913B0290913C028A309105B8F08091F1
:100950002A0280932B028091290280932A0280919F
:100960002802809329028091270280932802809197
:1009700026028093270210932602BBDC80912F026F
:10098000811739F481E090E090933A028093390224
:1009900010C010932F0281E090E090933802809372
:1009A000370210923A021092390210923C021092D1
:1009B0003B0210923E0210923D021F9108958091D9
:1009C0003D0290913E02009741F120913B0230910F
:1009D0003C0236952795369527958217930710F494
:1009E00001963BC081E090E090933E0280933D02EF
:1009F00080912D02882309F46AC08091330280938C
:100A00003F0280912F024EDC809340020ED188235A
:100A100009F05DC01092400208C1809139029091A6
:100A20003A020097F9F04091370250913802209134
:100A30007102222319F025E030E002C02EE130E0FF
:100A4000240F351F8217930730F4019690933A02D2
:100A500080933902089581E090E090933E02809364
:100A60003D02089520913B0230913C028091370273
:100A70009091380221153105D9F0C296281739070F
:100A800038F42F5F3F4F30933C0220933B02089590
:100A90008FEF80932F0210923C0210923B02109233
:100AA00038021092370210923A02109239020895D9
:100AB000009769F08A3F910530F4019690933802CF
:100AC00080933702089510923802109237020895E9
:100AD0008F929F92AF92BF92CF92DF92EF92FF924E
:100AE0000F931F93CF93DF930CE311E0C6E4D1E0A3
:100AF0009924D801ED91FC915E01988190958081B7
:100B000089238083B5E0BA95F1F700006BE4E62E07
:100B100061E0F62E53E6C52E51E0D52E892CD70183
:100B2000ED91FD917D01D6018D916D01908189231B
:100B3000282D30E049F4265B3D4FF9018081882360
:100B400059F4882D50DD08C0265B3D4FD9018C91AA
:100B5000882311F0882DE8DBB5E08B0EE3E6EE1676
:100B6000E1E0FE06E1F6D801ED91FD918D012196BF
:100B70008081D5019C91892B80839394B92DB530C8
:100B800009F0B7CF809146022091320230E090E028
:100B9000827090702817390709F0F1DA10DFEFE161
:100BA000FEE43197F1F700C00000DF91CF911F9173
:100BB0000F91FF90EF90DF90CF90BF90AF909F90FC
:100BC0008F90089584B7877F84BF88E10FB6F8942B
:100BD00080936000109260000FBE90E080E80FB636
:100BE000F89480936100909361000FBE37DB70DF53
:100BF000FECF8091E80080FFFCCF089580EA8093CB
:100C0000D80086E089BD09B400FEFDCF80E880935E
:100C1000D8001092E000109247028CE08093E2002E
:100C2000789408958091470208958091470288231F
:100C300091F18FB7F89493E09093E9009091E400DC
:100C40009E5C23E03091E80035FD0EC08FBF80919F
:100C50004702882301F18091E4008917F1F08FB7F2
:100C6000F8942093E900EECF90913F029093F10029
:100C70001092F100E0E4F2E091919093F10092E0A3
:100C8000E634F907C9F79AE39093E8001092480216
:100C90008FBF80E008958FEF08958FEF08956093E0
:100CA0003F0280934002C1DF882329F410923F0263
:100CB00010924002BACF08951F920F920FB60F9272
:100CC00011242F938F939F93EF93FF938091E100D3
:100CD0001092E10083FF0FC01092E90091E0909321
:100CE000EB001092EC0092E29093ED0098E090936C
:100CF000F0001092470282FF34C08091470288239F
:100D000081F120913002222361F1809149028F5FAD
:100D10008093490290E083709070009711F583E012
:100D20008093E9008091E80085FF1BC08091480214
:100D30008F5F809348028217A1F41092480280913D
:100D40003F028093F1001092F100E0E4F2E0819123
:100D50008093F10082E0E634F807C9F78AE38093D4
:100D6000E800FF91EF919F918F912F910F900FBE0F
:100D70000F901F9018951F920F920FB60F9211248B
:100D8000CF92DF92EF92FF920F931F932F933F9397
:100D90004F935F936F937F938F939F93AF93BF9383
:100DA000EF93FF93DF93CF930F92CDB7DEB71092FF
:100DB000E9008091E80083FF39C12091F100309172
:100DC000F1008091F100C82EDD244091F100942FB4
:100DD00080E0C82AD92A0091F10010E04091F1008A
:100DE000942F80E0082B192B6091F100A091F10065
:100DF00082EF8093E800363009F059C08BE790E02D
:100E00009C0125503040FC013797459154914C1579
:100E10005D05F9F4F9014591549140175107C9F462
:100E20002E5F3F4FF901859194912E5F3F4FF9015D
:100E30002491462F50E07A2F60E0462B572B4F3FEE
:100E4000510519F010F04FEF50E0421750F4242FE5
:100E500008C00796295F3F4FF0E08C3A9F0799F64C
:100E6000E5C0AEEF4091E80050E0BA0165707070E7
:100E700061157105B9F342FDDCC0322F213208F053
:100E800030E2AC01632F07C0FA014F5F5F4FE4917E
:100E9000E093F10061506623B9F7830F911D231B86
:100EA000A093E8002223F1F63032E1F2C2C03530DF
:100EB00049F48EEF8093E8009CDE8C2D806880934F
:100EC000E300B7C0393031F5222309F069C0C09280
:100ED00047028EEF8093E80041E085EA90E040937E
:100EE000E900FC010196E491E093EB00EE2369F048
:100EF0009C012F5F3F4FFC0184918093EC00C9015E
:100F00000196F90124912093ED004F5F453039F7A8
:100F10008EE141C0383039F4203809F041C069DE33
:100F20008091470261C03323A9F4298362DE2981BD
:100F3000223851F40093E9009091EB0081E095FF95
:100F400080E01092E90001C080E08093F1001092EF
:100F5000F10068C0313011F0333011F5223001F565
:100F6000C114D104E9F4402F4F77842F815084308D
:100F7000B8F48EEF8093E8004093E900333009F431
:100F800055C089E18093EB0081E090E002C0880FBA
:100F9000991F4A95E2F78093EA001092EA0049C04F
:100FA0000115110509F042C0213A09F5313089F4E3
:100FB00020DE80913F028093F1001092F100E0E486
:100FC000F2E081918093F10022E0E634F207C9F764
:100FD00029C0323021F40DDE8091300205C033305B
:100FE00029F507DE809131028093F1001BC0213288
:100FF000E9F4393061F48091E80082FFFCCF809100
:10100000F100809346028BEF8093E8000BC03A30EA
:1010100029F4D09230021092480204C03B3031F4DF
:10102000C09231028EEF8093E80003C081E280938A
:10103000EB000F90CF91DF91FF91EF91BF91AF91B6
:101040009F918F917F916F915F914F913F912F91E0
:101050001F910F91FF90EF90DF90CF900F900FBEF8
:0A1060000F901F901895F894FFCF31
:10106A00352B697D291E1404686D1F1A161B1D2055
:10107A0008070667211509196522170A0577231C2F
:10108A000B112C24180D107F250C0E366B26120F0F
:10109A003738271333316E2D2F34302E28002B008A
:1010AA0025002500250020044008022900290029DE
:1010BA0000230026002900230026002300230026FF
:1010CA00002300080110010420101004208080353C
:1010DA002B697D291E1404686D1F1A161B1D200812
:1010EA00070667211509196522170A0577231C0BBC
:1010FA00112C24180D107F250C0E366B26120F3773
:10110A0038271333316E2D2F34302E2F34697D7BDF
:10111A00231333116D24120F1000250C0E36672687
:10112A00180D3765271C0B38773F170A057C4015C1
:10113A0009197F410807067E421A161B1D4314042B
:10114A001D7A29282A4745352B697D7B1E4B4E6817
:10115A006D1F4A506F6F2052516F67214D4F6F6557
:10116A002235286F77235455622C245F5C597F25DA
:10117A00605D5A6B26615E5B00275657636E2D29A8
:10118A0028532E010001FFFFFFFFFFFFFF0101FFB0
:02119A007D01D5
:00000001FF
