:10000000A2C00000BBC00000B9C00000B7C0000023
:10001000B5C00000B3C00000B1C00000AFC0000018
:10002000ADC00000ABC00000A9C00000BDC500000D
:100030001AC60000A3C00000A1C000009FC00000BD
:100040009DC000009BC0000099C0000097C0000048
:1000500095C0000093C0000091C000008FC0000058
:100060008DC000008BC0000089C0000087C0000068
:1000700085C0000000010000AB001200020000BDBE
:10008000002200220000DF003F00210000CF000915
:10009000000300001E01040103090422010E0203F3
:1000A0000904320112000001C10600120100020021
:1000B000000020C0167C0400010102000109022298
:1000C00000010100C0320904000001030101000920
:1000D0002111010001223F000705830308000105EB
:1000E000010906A10175019508050719E029E71521
:1000F00000250181029501750881039505750105AB
:10010000081901290591029501750391039506755A
:1001100008150025680507190029688100C0040337
:1001200009040E03690062006E00540065006F0050
:100130000000120343006100740062006F00610060
:1001400072006400000011241FBECFEFD2E0DEBFBA
:10015000CDBF12E0A0E0B1E0EAE5FFE002C005900B
:100160000D92A233B107D9F712E0A2E3B2E001C0C9
:100170001D92A638B107E1F79DD4EDC641CF8AE4C0
:1001800084B980E287B984E08AB98FEF85B988B9EC
:100190008BB9089580E88093610010926100EFDFD1
:1001A000569A3E9A519A469A599880910101811126
:1001B0005E98EAE4F2E0119282E0E638F807D9F7B7
:1001C00095D4A8D48823E9F35E9A80910101811126
:1001D00046988091460280933E02089520914602FF
:1001E000227020933E0280910A0190910B012223FC
:1001F000D9F021E08738920781F18B54914039F48E
:1002000087E891E090933C0280933B0206C087E828
:1002100091E090930B0180930A01469A809101012D
:100220008823D9F0599A089521E0863F9207A9F0D2
:100230008B54914039F486EF91E090933C02809387
:100240003B0206C086EF91E090930B0180930A0178
:1002500059988091010181114698089580910C016F
:10026000823091F488E080933F021092400255D48E
:100270002FEF80E792E0215080409040E1F700C0EE
:10028000000068E08CE211C084E080933F0210928D
:10029000400243D42FEF80E792E02150804090400D
:1002A000E1F700C0000066E080E071C48C3308F51F
:1002B00090E0FC01E65BFD4F4081413039F4FC01E8
:1002C000E55BFE4F80811816ACF013C020910A0147
:1002D00030910B0151E02B34350731F0423021F4DD
:1002E000FC01E957FE4F03C0F901E80FF91F8081B7
:1002F000089580E008958091320290913302009732
:1003000039F1209134023091350236952795369592
:1003100027958217930710F401963CC081E090E086
:10032000909333028093320280910201882309F472
:1003300067C080913D0280933F0280910001B6DF4B
:1003400080934002EAD381115BC010924002E5C362
:100350002091360230913702809138029091390213
:1003600021153105E1F040917102442319F045E077
:1003700050E002C04EE150E0840F951F2817390766
:1003800038F42F5F3F4F30933702209336020895A1
:1003900081E090E09093330280933202089520919F
:1003A00034023091350221153105D9F0C296281753
:1003B000390738F42F5F3F4F3093350220933402D2
:1003C00008958FEF8093000110923502109234024D
:1003D00010923902109238021092370210923602AF
:1003E0000895009769F08A3F910530F40196909343
:1003F000390280933802089510923902109238021F
:1004000008950F931F93CF93DF93C3E0D1E000E4EF
:1004100012E089914BDFF80181938F01F1E0C9303F
:10042000DF07B9F780913D0280933F02DF91CF91C2
:100430001F910F9172C3CF93C82F60913D02962FE9
:100440009D7D282F30E080917102811104C0992395
:1004500021F082E003C081E001C08FEFF901E65B8B
:10046000FD4F8083813021F4D901A55BBE4F06C0CA
:10047000A0910A01B0910B01A20FB31F8C918111C1
:100480001EC0A0910A01B0910B01A20FB31F8C9165
:10049000992311F092E001C09FEF908381110FC06A
:1004A00040913B0250913C024115510541F06111D0
:1004B00006C0DA01A20FB31F8C9196E09083909151
:1004C0003A02992321F08A3709F03DC193C08D3655
:1004D00008F4CBC08D3701F58081813019F464E0D8
:1004E0008BE256C0611104C084E080933D0202C0DB
:1004F00083E0808380913D0280933F028BE2809372
:1005000040020BD32FEF80E792E0215080409040D3
:10051000E1F700C00000F7C08E3731F580818130EF
:1005200009F0F2C0627209F4EFC020913B023091F1
:100530003C022115310549F030930B0120930A014B
:1005400010923C0210923B02DFC080910A01909110
:100550000B0190933C0280933B028FE091E09093DB
:100560000B0180930A01D0C08C37A1F480818130C7
:1005700071F4862F827259F080910C018F5F809305
:100580000C01833008F4C0C010920C01BDC08CE295
:10059000FED2BAC08D3661F4862F827221F085E0DA
:1005A0008083616016C0662399F084E0808310C068
:1005B0008E3611F460620DC08B3741F481E090916A
:1005C0000201911180E0809302019EC0873721F4DF
:1005D000626060933D0297C08F3609F495C08A37F8
:1005E00089F481E080933A025E9A469A599868E0CD
:1005F0008FE0CECF10923A0280910101882309F456
:1006000083C013C0893709F07FC0627209F47CC0CF
:1006100080910101882331F0109201015E9A469A7F
:10062000599872C081E08093010180910A019091F4
:100630000B018758914039F080913B0290913C0228
:100640008758914009F4599A80910A0190910B01C1
:10065000865F914041F080913B0290913C02865F21
:10066000914009F051C046984FC08536B0F1909145
:100670000C01923029F48536B9F0893649F402C06C
:100680008C3611F460681BC0853621F4616017C098
:100690008C36C1F3863611F4626011C0873611F4CE
:1006A00064600DC0883611F4686009C0893611F4A1
:1006B000606105C08A3611F4606201C060646093B5
:1006C0003D029FDE109239021092380210923502DC
:1006D000109234021092000117C0809100018C1317
:1006E00006C080913402909135020A9768F0E8E0E4
:1006F000F1E0A9E0B1E082918E9381E0E330F80768
:10070000D1F7C09303017DDE809100018C1307C0F7
:1007100081E090E0909337028093360210C0C0933E
:10072000000181E090E090933902809338021092AA
:100730003702109236021092350210923402109253
:10074000330210923202CF910895CF93DF93D82FC6
:10075000282F30E0D901A65BBD4FCC91C13021F4E8
:10076000F901E55BFE4F13C0E0910A01F0910B0126
:10077000E20FF31F9081C63059F440913B02509133
:100780003C024115510521F0FA01E20FF31F90815F
:100790001C9280913A0281111CC19D3608F4A3C0BD
:1007A0009D3739F4C33009F414C180913D028B7F29
:1007B00008C09D3609F03FC080913D02C53031F43C
:1007C0008E7F80933D02DF91CF911BCE8D7F8093F2
:1007D0003D0217DE809100018D1381C080913802A7
:1007E000909139020197C19708F079C0C43009F49B
:1007F00076C080910A0190910B0121E08738920721
:1008000009F46DC08B54914039F487E891E09093DE
:100810003C0280933B0206C087E891E090930B0175
:1008200080930A011BDD469A80910101882309F417
:1008300056C0599A54C09E36A9F580913D028F7DCD
:1008400080933D02DEDD809100018D1348C08091D0
:100850003802909139020197C19708F040C0C43026
:1008600009F43DC080910A0190910B0121E0863F7F
:100870009207A9F18B54914039F486EF91E090935F
:100880003C0280933B0206C086EF91E090930B01FF
:1008900080930A01E3DC5998809101018823F9F0E3
:1008A00046981DC0973709F094C080913D028D7F16
:1008B00080933D02A6DD809100018D1310C08091D0
:1008C0003802909139020197C19748F4C23039F04B
:1008D00080913D02811103C060E08CE258D18FEF1E
:1008E0008093000166C0953608F440C020910C0149
:1008F00080913D02223039F4953611F4877F20C073
:10090000993649F402C09C3611F48F7719C0953698
:1009100021F48E7F15C09C36C1F3963611F48D7F7D
:100920000FC0973611F48B7F0BC0983639F3993688
:1009300011F48F7E05C09A3611F48F7D01C08F7B34
:1009400080933D025EDD10923902109238021092BF
:100950003702109236021092350210923402109231
:100960003302109232021092000133C0E3E0F1E052
:1009700080E091919D1719F08F5F8630D1F7863016
:1009800041F0E82FF0E0ED5FFE4F918190838F5FA3
:10099000F6CF37DD809100018D130BC01092370226
:1009A0001092360281E090E09093350280933402F9
:1009B0000CC0109239021092380210923702109235
:1009C00036021092350210923402109233021092C5
:1009D0003202DF91CF9108957F928F929F92AF92D2
:1009E000BF92CF92DF92EF92FF920F931F93CF931C
:1009F000DF937CEEE72E71E0F72E07EE11E0812CFD
:100A0000D701CD91DD917D01F80191908F01992D54
:100A10009095888189238883F5E0FA95F1F70000A5
:100A20005FECA52E51E0B52E63ECC62E61E0D62E0C
:100A3000712C872D880DD501ED91FD915D01D601B9
:100A40009D916D0120819223282F30E0F901E65B12
:100A5000FD4F911105C09081911105C0ECDC03C0E0
:100A60009081911172DEB5E07B0EECE37E12E1CF56
:100A700088818929888383948B12C2CF8091460212
:100A8000827090913E029813A9DB35DC8FE19EE4E1
:100A90000197F1F700C00000DF91CF911F910F91F6
:100AA000FF90EF90DF90CF90BF90AF909F908F908E
:100AB0007F90089584B7877F84BF88E10FB6F8944C
:100AC00080936000109260000FBE90E080E80FB647
:100AD000F89480936100909361000FBE5BDB7CDF34
:100AE000FECF8091E80080FFFCCF089580EA8093DC
:100AF000D80086E089BD09B400FEFDCF80E8809370
:100B0000D8001092E000109247028CE08093E2003F
:100B10007894089580914702089580914702882330
:100B200091F18FB7F89493E09093E9009091E400ED
:100B30009E5C23E03091E80035FD0EC08FBF8091B0
:100B40004702882301F18091E4008917F1F08FB703
:100B5000F8942093E900EECF90913F029093F1003A
:100B60001092F100E0E4F2E091919093F10092E0B4
:100B7000E634F907C9F79AE39093E8001092480227
:100B80008FBF80E008958FEF08958FEF08956093F1
:100B90003F0280934002C1DF882329F410923F0274
:100BA00010924002BACF08951F920F920FB60F9283
:100BB00011242F938F939F93EF93FF938091E100E4
:100BC0001092E10083FF0FC01092E90091E0909332
:100BD000EB001092EC0092E29093ED0098E090937D
:100BE000F0001092470282FF34C0809147028823B0
:100BF00081F120910D01222361F1809149028F5FE3
:100C00008093490290E083709070009711F583E023
:100C10008093E9008091E80085FF1BC08091480225
:100C20008F5F809348028217A1F41092480280914E
:100C30003F028093F1001092F100E0E4F2E0819134
:100C40008093F10082E0E634F807C9F78AE38093E5
:100C5000E800FF91EF919F918F912F910F900FBE20
:100C60000F901F9018951F920F920FB60F9211249C
:100C7000CF92DF92EF92FF920F931F932F933F93A8
:100C80004F935F936F937F938F939F93AF93BF9394
:100C9000EF93FF93DF93CF930F92CDB7DEB7109210
:100CA000E9008091E80083FF39C12091F100309183
:100CB000F1008091F100C82EDD244091F100942FC5
:100CC00080E0C82AD92A0091F10010E04091F1009B
:100CD000942F80E0082B192B6091F100A091F10076
:100CE00082EF8093E800363009F059C08BE790E03E
:100CF0009C0125503040FC013797459154914C158B
:100D00005D05F9F4F9014591549140175107C9F473
:100D10002E5F3F4FF901859194912E5F3F4FF9016E
:100D20002491462F50E07A2F60E0462B572B4F3FFF
:100D3000510519F010F04FEF50E0421750F4242FF6
:100D400008C00796295F3F4FF0E08C3A9F0799F65D
:100D5000E5C0AEEF4091E80050E0BA0165707070F8
:100D600061157105B9F342FDDCC0322F213208F064
:100D700030E2AC01632F07C0FA014F5F5F4FE4918F
:100D8000E093F10061506623B9F7830F911D231B97
:100D9000A093E8002223F1F63032E1F2C2C03530F0
:100DA00049F48EEF8093E8009CDE8C2D8068809360
:100DB000E300B7C0393031F5222309F069C0C09291
:100DC00047028EEF8093E80041E085EA90E040938F
:100DD000E900FC010196E491E093EB00EE2369F059
:100DE0009C012F5F3F4FFC0184918093EC00C9016F
:100DF0000196F90124912093ED004F5F453039F7BA
:100E00008EE141C0383039F4203809F041C069DE44
:100E10008091470261C03323A9F4298362DE2981CE
:100E2000223851F40093E9009091EB0081E095FFA6
:100E300080E01092E90001C080E08093F100109200
:100E4000F10068C0313011F0333011F5223001F576
:100E5000C114D104E9F4402F4F77842F815084309E
:100E6000B8F48EEF8093E8004093E900333009F442
:100E700055C089E18093EB0081E090E002C0880FCB
:100E8000991F4A95E2F78093EA001092EA0049C060
:100E90000115110509F042C0213A09F5313089F4F4
:100EA00020DE80913F028093F1001092F100E0E497
:100EB000F2E081918093F10022E0E634F207C9F775
:100EC00029C0323021F40DDE80910D0105C0333090
:100ED00029F507DE80910E018093F1001BC02132BD
:100EE000E9F4393061F48091E80082FFFCCF809111
:100EF000F100809346028BEF8093E8000BC03A30FC
:100F000029F4D0920D011092480204C03B3031F414
:100F1000C0920E018EEF8093E80003C081E28093BF
:100F2000EB000F90CF91DF91FF91EF91BF91AF91C7
:100F30009F918F917F916F915F914F913F912F91F1
:100F40001F910F91FF90EF90DF90CF900F900FBE09
:0A0F50000F901F901895F894FFCF42
:100F5A00FF0101FFFFFFFFFFFFFFF601017D0135E2
:100F6A002B697D7B1E4B4E686D1F4A506F6F205256
:100F7A00516F67214D4F6F652235286F772354557E
:100F8A00622C245F5C597F25605D5A6B26615E5B2B
:100F9A0000275657636E2D2928532E2F34697D7BDF
:100FAA00231333116D24120F1000250C0E366726F9
:100FBA00180D3765271C0B38773F2928007C404AD3
:100FCA00502A7F4152514C7E424D4F4900434B4E6D
:100FDA00007A4429484745352B697D291E1404683F
:100FEA006D1F1A161B1D20080706672115091965AA
:100FFA0022170A0577231C0B112C24180D107F25A4
:10100A000C0E366B26120F3738271333316E2D2FFD
:10101A0034302E0801100104201010042080802989
:10102A000029002900230026002900230026002386
:10103A0000230026002300200440080228002B0079
:10104A00250025002500352B697D291E1404686DAD
:10105A001F1A161B1D200807066721150919652284
:10106A00170A0577231C0B112C24180D107F250C49
:10107A000E366B26120F3738271333316E2D2F3465
:02108A00302E06
:00000001FF
